:030B1C00011400C1
:10080000E4F50FF50EF50DF50CC290D293D292D20D
:100810009120950C750C31750D41750E42750F4385
:1008200020960C750C32750D44750E45750F4620DB
:10083000970C750C33750D47750E48750F49C291AD
:10084000D293D292D29020950C750C34750D4A75C6
:100850000E4B750F4C20960C750C35750D4D750EA5
:100860004E750F4F20970C750C36750D50750E5147
:10087000750F52C292D293D291D29020950C750CE2
:1008800037750D53750E54750F5520960C750C3831
:10089000750D56750E57750F5820970C750C3975D8
:1008A0000D59750E5A750F43C293D292D291D290C0
:1008B00020950C750C2A750D2A750E2A750F2A20A5
:1008C000960C750C30750D20750E20750F20209735
:1008D0000C750C23750D23750E23750F237B007A81
:0308E00000790C90
:0108E30022F2
:0A0AA200C2A57F647E007D007C0089
:100AAC008F0F8E0E8D0D8C0C780C74FF1209B8EC18
:060ABC004D4E4F70F322C5
:100A5C007F28120AE27F28120AE27F28120AE27F1C
:100A6C000F120AE27F06120AE27F02120AE27F01EB
:030A7C00020AE289
:100AE200AB07C2A48B80120AA2D2A5EBC454F0FBBE
:080AF200F580120AA2D2A52230
:100AC200AB07D2A48B80C2A57F0A120AA6D2A5EBDD
:100AD200C454F0FBF580C2A57F0A120AA6D2A52251
:060A2A008B108A118912F5
:100A3000E4F513AB10AA11A912120AFAC3E5139F29
:100A4000E49E5017AB10AA11A9128513827583007A
:0B0A5000120989FF120AC2051380D8AA
:010A5B002278
:100A7F007FFB7E04120AA8120A5C75A89075892064
:100A8F00758DFD759850D28E1208008B158A1689B8
:030A9F001780F5C8
:030023000209D6F9
:1009D600C0E0C0F0C083C082C0D075D000C000C0E7
:1009E60001C002C003C004C005C006C007AB15AAFB
:1009F60016A917120970FF600DC2ACE51470031238
:100A06000B0FD2AC8003751400D007D006D005D0EA
:100A160004D003D002D001D000D0D0D082D083D071
:040A2600F0D0E032FA
:0D0B0F00AA07120AC28A99C2997514012220
:030000000208E40F
:0C08E400787FE4F6D8FD75811702092B1F
:10097000BB010689828A83E0225002E722BBFE0285
:09098000E32289828A83E49322B8
:10098900BB010CE58229F582E5833AF583E0225023
:1009990006E92582F8E622BBFE06E92582F8E2226D
:0D09A900E58229F582E5833AF583E4932287
:1009B6007401FF3395E0FEFDFC080808E6CF2FF62C
:1009C60018E6CE3EF618E6CD3DF618E6CC3CF62205
:100AFA00E4FFFE120970600C0FEF70010E09E97035
:050B0A00F20A80EF2259
:1008F000020A7FE493A3F8E493A34003F68001F295
:1009000008DFF48029E493A3F85407240CC8C33308
:10091000C4540F4420C8834004F456800146F6DFD7
:10092000E4800B0102040810204080900B1CE47E40
:10093000019360BCA3FF543F30E509541FFEE493CC
:10094000A360010ECF54C025E060A840B8E493A393
:10095000FAE493A3F8E493A3C8C582C8CAC583CABE
:10096000F0A3C8C582C8CAC583CADFE9DEE780BE76
:010B1F0000D5
:00000001FF
