:100B0B00416363657373204772616E746564004162
:0D0B1B0063636573732044656E6965640053
:100B5500012700010900010801060D6D616E6F6A2C
:010B6500008F
:10080000E4F52BF52AF529F528C290D293D292D29D
:100810009120950C752831752941752A42752B4315
:1008200020960C752832752944752A45752B46206B
:10083000970C752833752947752A48752B49C2913D
:10084000D293D292D29020950C75283475294A758E
:100850002A4B752B4C20960C75283575294D752A19
:100860004E752B4F20970C752836752950752A51D7
:10087000752B52C292D293D291D29020950C7528AA
:1008800037752953752A54752B5520960C752838C1
:10089000752956752A57752B5820970C7528397568
:1008A0002959752A5A752B43C293D292D291D2906C
:1008B00020950C75282A75292A752A2A752B2A2035
:1008C000960C752830752920752A20752B202097C5
:1008D0000C752823752923752A23752B237B007A11
:0308E00000792874
:0108E30022F2
:0A0ACB00C2A57F647E007D007C0060
:100AD5008F308E2F8D2E8C2D782D74FF1209B8EC4A
:060AE5004D4E4F70F3229C
:100AA8007F28120B287F28120B287F28120B287FFB
:100AB8000F120B287F06120B287F02120B287F01CA
:030AC800020B28F6
:100B2800AB07C2A48B80120ACBD2A5EBC454F0FB4E
:080B3800F580120ACBD2A522C0
:100AEB00AB07D2A48B80C2A57F0A120ACFD2A5EB8B
:100AFB00C454F0FBF580C2A57F0A120ACFD2A522FF
:060A26008B298A2A892BAE
:100A2C00E4F52CAB29AA2AA92B120B40C3E52C9F69
:100A3C00E49E5017AB29AA2AA92B852C827583001A
:0B0A4C00120989FF120AEB052C80D86C
:010A5700227C
:100A81007FFB7E04120AD1120AA81208008B0A8A7F
:100A91000B890C120970FF60F1E5097005120A5803
:070AA10080E8E4F50980E3A1
:100A58008F28E528B40F05120B678019E528B4F034
:100A6800051209D6800FAF27052774132FF8A6287B
:090A7800AF28120AEB75090122F6
:0A0B67007F04120B287F20020AEB26
:1009D600E4F5277B007A007913120B40C3E5279FC5
:1009E600E49E5017740D2527F8E6FF74132527F8A3
:1009F600E66F6003E4F508052780D8E508B4010D25
:100A06007FC0120B287BFF7A0B790B800FE50870ED
:100A16000E7FC0120B287BFF7A0B791A120A262248
:030000000208E40F
:0C08E400787FE4F6D8FD75813002092B06
:10097000BB010689828A83E0225002E722BBFE0285
:09098000E32289828A83E49322B8
:10098900BB010CE58229F582E5833AF583E0225023
:1009990006E92582F8E622BBFE06E92582F8E2226D
:0D09A900E58229F582E5833AF583E4932287
:1009B6007401FF3395E0FEFDFC080808E6CF2FF62C
:1009C60018E6CE3EF618E6CD3DF618E6CC3CF62205
:100B4000E4FFFE120970600C0FEF70010E09E970EE
:050B5000F20A80EF2213
:1008F000020A81E493A3F8E493A34003F68001F293
:1009000008DFF48029E493A3F85407240CC8C33308
:10091000C4540F4420C8834004F456800146F6DFD7
:10092000E4800B0102040810204080900B55E47E07
:10093000019360BCA3FF543F30E509541FFEE493CC
:10094000A360010ECF54C025E060A840B8E493A393
:10095000FAE493A3F8E493A3C8C582C8CAC583CABE
:10096000F0A3C8C582C8CAC583CADFE9DEE780BE76
:010B6600008E
:00000001FF
