:100AB5000A2D88C6868E89F9C78C92C10A23C0F98A
:100AC500A4B0999282F88090140CC0F9A4B09992C0
:0E0AD50082F8809088C6868E89F9C78C92C1FF
:10080000E4F53EF53DF53CF53BC290D293D292D251
:100810009120950C753B31753C41753D42753E43C9
:1008200020960C753B32753C44753D45753E46201F
:10083000970C753B33753C47753D48753E49C291F1
:10084000D293D292D29020950C753B34753C4A7568
:100850003D4B753E4C20960C753B35753C4D753DBA
:100860004E753E4F20970C753B36753C50753D518B
:10087000753E52C292D293D291D29020950C753B84
:1008800037753C53753D54753E5520960C753B3875
:10089000753C56753D57753E5820970C753B39751C
:1008A0003C59753D5A753E43C293D292D291D29033
:1008B00020950C753B2A753C2A753D2A753E2A20E9
:1008C000960C753B30753C20753D20753E20209779
:1008D0000C753B23753C23753D23753E237B007AC5
:0308E00000793B61
:0108E30022F2
:080AE4007F0A7E007D007C000A
:100AEC008F448E438D428C41784174FF120A54EC32
:060AFC004D4E4F70F32285
:1008E4008B3B8A3C893DAB3EAA3FA940120A0CFFD0
:1008F4003395E0AB3BAA3CA93D8F82F583120A25D0
:10090400F580C2A0120AE4D2A0AB3EAA3FA940904F
:100914000001120A25FF3395E0AB3BAA3CA93D8FA9
:1009240082F583120A25F580C2A1120AE4D2A1AB92
:100934003EAA3FA940900002120A25FF3395E0AB7E
:100944003BAA3CA93D8F82F583120A25F580C2A2F9
:10095400120AE4D2A2AB3EAA3FA940900003120AB5
:1009640025FF3395E0AB3BAA3CA93D8F82F583126A
:0C0974000A25F580C2A3120AE4D2A322D7
:100A72007537041208008B208A218922AF37153777
:100A8200EF6013AB20AA21A922120A0CFF740825D9
:100A920037F8A60780E6753800753900753A08857B
:100AA200383E85393F853A407B007A007923120827
:030AB200E480C01D
:0300000002098072
:0C098000787FE4F6D8FD7581440209C7B9
:100A0C00BB010689828A83E0225002E722BBFE02E8
:090A1C00E32289828A83E493221B
:100A2500BB010CE58229F582E5833AF583E0225086
:100A350006E92582F8E622BBFE06E92582F8E222D0
:0D0A4500E58229F582E5833AF583E49322EA
:100A52007401FF3395E0FEFDFC080808E6CF2FF68F
:100A620018E6CE3EF618E6CD3DF618E6CC3CF62268
:10098C00020A72E493A3F8E493A34003F68001F205
:10099C0008DFF48029E493A3F85407240CC8C3336C
:1009AC00C4540F4420C8834004F456800146F6DF3B
:1009BC00E4800B0102040810204080900AB5E47E0C
:1009CC00019360BCA3FF543F30E509541FFEE49330
:1009DC00A360010ECF54C025E060A840B8E493A3F7
:1009EC00FAE493A3F8E493A3C8C582C8CAC583CA22
:1009FC00F0A3C8C582C8CAC583CADFE9DEE780BEDA
:010AE3000012
:00000001FF
