:1008F2002040081D051F141700001F000000000003
:1009020000000000001F011F19010100001F091F44
:1009120019090100001E041F08040204021F011F1E
:1009220011090500000000000000001D051F14173A
:0D09320000001F0848404850586068707869
:0A09D400C2A57F647E007D007C0058
:1009DE008F578E568D558C54785474FF1208BBEC7D
:0609EE004D4E4F70F32294
:1009B1007F28120A147F28120A147F28120A147F32
:1009C1000F120A147F06120A147F02120A147F0101
:0309D100020A1403
:100A1400AB07C2A48B801209D4D2A5EBC454F0FB5B
:080A2400F5801209D4D2A522CD
:1009F400AB07D2A48B80C2A57F0A1209D8D2A5EB7B
:100A0400C454F0FBF580C2A57F0A1209D8D2A522EE
:06097F008B508A518952E1
:10098500E4F553AB50AA51A952120A2CC3E5539F63
:10099500E49E5017AB50AA51A95285538275830026
:0B09A50012088CFF1209F4055380D8E3
:0109B0002224
:100940007FFB7E041209DA1209B1E4FA74482AF82E
:10095000E6FF120A14E4F9EA75F008A4240829F85D
:10096000E6FF1209F409B908EE0ABA08DF7F881217
:0F0970000A14E4FAAF021209F40ABA08F780FE7B
:03000000020800F3
:0C080000787FE4F6D8FD758157020847A8
:10088C00BB010CE58229F582E5833AF583E0225021
:10089C0006E92582F8E622BBFE06E92582F8E2226B
:0D08AC00E58229F582E5833AF583E4932285
:1008B9007401FF3395E0FEFDFC080808E6CF2FF62A
:1008C90018E6CE3EF618E6CD3DF618E6CC3CF62203
:100A2C00E4FFFE1208D9600C0FEF70010E09E9709B
:050A3C00F20A80EF2228
:10080C00020940E493A3F8E493A34003F68001F2B9
:10081C0008DFF48029E493A3F85407240CC8C333ED
:10082C00C4540F4420C8834004F456800146F6DFBC
:10083C00E4800B01020408102040809008F2E47E52
:10084C00019360BCA3FF543F30E509541FFEE493B1
:10085C00A360010ECF54C025E060A840B8E493A378
:10086C00FAE493A3F8E493A3C8C582C8CAC583CAA3
:10087C00F0A3C8C582C8CAC583CADFE9DEE780BE5B
:01093F0000B7
:1008D900BB010689828A83E0225002E722BBFE021D
:0908E900E32289828A83E4932250
:00000001FF
