:0B082C00D2B6D2B7E47F307E75FDFC31
:10083700E50824FCF508F8120820A80874FF120838
:0E08470002EC4D4E4F70F3E5082404F5082234
:10085500C2B4D2B512082CD2B4C2B512082CD2B487
:10086500D2B5C2B612082ED2B4D2B5D2B6C2B7E44A
:090875007F307E75FDFC0208379E
:0300000002087E75
:0C087E00787FE4F6D8FD7581080208556B
:100800007401FF3395E0FEFDFC080808E6CF2FF6E3
:1008100018E6CE3EF618E6CD3DF618E6CC3CF622BC
:0C082000ECF608EDF608EEF608EFF62204
:00000001FF
