:0908FE00010900010808010B804A
:1008E8008F108E0F8D0E8C0D780D74FF1208CAECC8
:0608F8004D4E4F70F3228B
:10088C00850B0AE4F50CE50CC39508501AE50BF43E
:10089C00F5807F307E757D007C001208E8E50BC387
:1008AC0013F50B050C80DF1508E50A4480F50BE504
:0C08BC000925E0F509F4250BF50B80C4BC
:03000000020800F3
:0C080000787FE4F6D8FD758110020847EF
:1008C8007401FF3395E0FEFDFC080808E6CF2FF61B
:1008D80018E6CE3EF618E6CD3DF618E6CC3CF622F4
:10080C0002088CE493A3F8E493A34003F68001F26E
:10081C0008DFF48029E493A3F85407240CC8C333ED
:10082C00C4540F4420C8834004F456800146F6DFBC
:10083C00E4800B01020408102040809008FEE47E46
:10084C00019360BCA3FF543F30E509541FFEE493B1
:10085C00A360010ECF54C025E060A840B8E493A378
:10086C00FAE493A3F8E493A3C8C582C8CAC583CAA3
:10087C00F0A3C8C582C8CAC583CADFE9DEE780BE5B
:0109070000EF
:00000001FF
