:1009D3000A2E88C6868E89F9C78C92C10A20C0F96F
:1009E300A4B0999282F880901408C0F9A4B09992A7
:1009F30082F8809088C6868E89F9C78C92C1012AB5
:100A030000012B00012C00012D00041C000000003C
:080A14007F0A7E007D007C00DA
:100A1C008F418E408D3F8C3E783E74FF120970ECF6
:060A2C004D4E4F70F32255
:100800008B388A39893AAB3BAA3CA93D120928FFAB
:100810003395E0AB38AA39A93A8F82F583120941A2
:10082000F580C2A0120A14D2A0AB3BAA3CA93D900D
:100830000001120941FF3395E0AB38AA39A93A8F7C
:1008400082F583120941F580C2A1120A14D2A1AB2C
:100850003BAA3CA93D900002120941FF3395E0AB51
:1008600038AA39A93A8F82F583120941F580C2A2CC
:10087000120A14D2A2AB3BAA3CA93D900003120974
:1008800041FF3395E0AB38AA39A93A8F82F583123C
:0C0890000941F580C2A3120A14D2A32271
:100A320075A881758801753B00753C00753D1C7B6E
:0A0A4200007A00792012080080EC11
:0300030002098E61
:10098E00C0E0C0D0052AE52AD394094005752A0097
:10099E00052BE52BD394094005752B00052CE52C72
:1009AE00D394094005752C00052DE52DD3940940EF
:1009BE0003752D00852A1C852B1D852C1E852D1F4C
:0509CE00D0D0D0E032A2
:0300000002089C57
:0C089C00787FE4F6D8FD7581410208E386
:10092800BB010689828A83E0225002E722BBFE02CD
:09093800E32289828A83E4932200
:10094100BB010CE58229F582E5833AF583E022506B
:1009510006E92582F8E622BBFE06E92582F8E222B5
:0D096100E58229F582E5833AF583E49322CF
:10096E007401FF3395E0FEFDFC080808E6CF2FF674
:10097E0018E6CE3EF618E6CD3DF618E6CC3CF6224D
:1008A800020A32E493A3F8E493A34003F68001F22A
:1008B80008DFF48029E493A3F85407240CC8C33351
:1008C800C4540F4420C8834004F456800146F6DF20
:1008D800E4800B01020408102040809009D3E47ED4
:1008E800019360BCA3FF543F30E509541FFEE49315
:1008F800A360010ECF54C025E060A840B8E493A3DC
:10090800FAE493A3F8E493A3C8C582C8CAC583CA06
:10091800F0A3C8C582C8CAC583CADFE9DEE780BEBE
:010A130000E2
:00000001FF
