:100AAA000A2E88C6868E89F9C78C92C10A24C0F993
:100ABA00A4B0999282F88090140CC0F9A4B09992CB
:100ACA0082F8809088C6868E89F9C78C92C10120E7
:070ADA000004080000000009
:10080000E4F53EF53DF53CF53BC290D293D292D251
:100810009120950C753B31753C41753D42753E43C9
:1008200020960C753B32753C44753D45753E46201F
:10083000970C753B33753C47753D48753E49C291F1
:10084000D293D292D29020950C753B34753C4A7568
:100850003D4B753E4C20960C753B35753C4D753DBA
:100860004E753E4F20970C753B36753C50753D518B
:10087000753E52C292D293D291D29020950C753B84
:1008800037753C53753D54753E5520960C753B3875
:10089000753C56753D57753E5820970C753B39751C
:1008A0003C59753D5A753E43C293D292D291D29033
:1008B00020950C753B2A753C2A753D2A753E2A20E9
:1008C000960C753B30753C20753D20753E20209779
:1008D0000C753B23753C23753D23753E237B007AC5
:0308E00000793B61
:0108E30022F2
:080AE2007F0A7E007D007C000C
:100AEA008F448E438D428C41784174FF120A54EC34
:060AFA004D4E4F70F32287
:1008E4008B3B8A3C893DAB3EAA3FA940120A0CFFD0
:1008F4003395E0AB3BAA3CA93D8F82F583120A25D0
:10090400F580C2A0120AE2D2A0AB3EAA3FA9409051
:100914000001120A25FF3395E0AB3BAA3CA93D8FA9
:1009240082F583120A25F580C2A1120AE2D2A1AB94
:100934003EAA3FA940900002120A25FF3395E0AB7E
:100944003BAA3CA93D8F82F583120A25F580C2A2F9
:10095400120AE2D2A2AB3EAA3FA940900003120AB7
:1009640025FF3395E0AB3BAA3CA93D8F82F583126A
:0C0974000A25F580C2A3120AE2D2A322D9
:100A72001208008B218A228923120A0CFF600CE5DE
:100A8200207005120B008003E4F5207538007539DB
:100A920000753A0885383E85393F853A407B007AB1
:080AA2000079241208E480C869
:0F0B0000850A0B85090A8508098F0875200122CF
:0300000002098072
:0C098000787FE4F6D8FD7581440209C7B9
:100A0C00BB010689828A83E0225002E722BBFE02E8
:090A1C00E32289828A83E493221B
:100A2500BB010CE58229F582E5833AF583E0225086
:100A350006E92582F8E622BBFE06E92582F8E222D0
:0D0A4500E58229F582E5833AF583E49322EA
:100A52007401FF3395E0FEFDFC080808E6CF2FF68F
:100A620018E6CE3EF618E6CD3DF618E6CC3CF62268
:10098C00020A72E493A3F8E493A34003F68001F205
:10099C0008DFF48029E493A3F85407240CC8C3336C
:1009AC00C4540F4420C8834004F456800146F6DF3B
:1009BC00E4800B0102040810204080900AAAE47E17
:1009CC00019360BCA3FF543F30E509541FFEE49330
:1009DC00A360010ECF54C025E060A840B8E493A3F7
:1009EC00FAE493A3F8E493A3C8C582C8CAC583CA22
:1009FC00F0A3C8C582C8CAC583CADFE9DEE780BEDA
:010AE1000014
:00000001FF
