:0A08E900C2A57F647E007D007C0044
:1008F3008F0F8E0E8D0D8C0C780C74FF12082FEC5D
:060903004D4E4F70F3227F
:1008C6007F281209437F281209437F281209437F94
:1008D6000F1209437F061209437F021209437F0163
:0308E600020943C1
:10094300AB07C2A48B801208E9D2A5EBC454F0FB19
:08095300F5801208E9D2A5228B
:10090900AB07D2A48B80C2A57F0A1208EDD2A5EB52
:10091900C454F0FBF580C2A57F0A1208EDD2A522C6
:060866008B108A118912BB
:10086C00E4F513AB10AA11A91212095BC3E5139F8F
:10087C00E49E5017AB10AA11A91285138275830040
:0B088C00120800FF120909051380D8B4
:01089700223E
:100929007FFB7E041208EF1208C675A8907589200E
:0A093900758DFD759850D28E80FE7A
:0300230002089838
:10089800C0E0C0D075D000C000C003C004C005C00F
:1008A80006C007309807AF99120909C298D007D037
:0E08B80006D005D004D003D000D0D0D0E0325E
:0300000002097082
:0C097000787FE4F6D8FD75811302092998
:10080000BB010CE58229F582E5833AF583E02250AD
:1008100006E92582F8E622BBFE06E92582F8E222F7
:0D082000E58229F582E5833AF583E4932211
:10082D007401FF3395E0FEFDFC080808E6CF2FF6B6
:10083D0018E6CE3EF618E6CD3DF618E6CC3CF6228F
:10095B00E4FFFE12084D600C0FEF70010E09E970F9
:05096B00F20A80EF22FA
:10084D00BB010689828A83E0225002E722BBFE02A9
:09085D00E32289828A83E49322DC
:00000001FF
