:030AC200010C0024
:10080000E4F513F512F511F510C290D293D292D2FD
:100810009120950C75103175114175124275134375
:1008200020960C75103275114475124575134620CB
:10083000970C751033751147751248751349C2919D
:10084000D293D292D29020950C75103475114A75BE
:10085000124B75134C20960C75103575114D751291
:100860004E75134F20970C75103675115075125137
:10087000751352C292D293D291D29020950C7510DA
:100880003775115375125475135520960C75103821
:1008900075115675125775135820970C75103975C8
:1008A000115975125A751343C293D292D291D290B4
:1008B00020950C75102A75112A75122A75132A2095
:1008C000960C751030751120751220751320209725
:1008D0000C7510237511237512237513237B007A71
:0308E0000079108C
:0108E30022F2
:0A0A5500C2A57F647E007D007C00D6
:100A5F008F138E128D118C10781074FF1209B8EC51
:060A6F004D4E4F70F32212
:100A32007F28120A957F28120A957F28120A957F2D
:100A42000F120A957F06120A957F02120A957F01FC
:030A5200020A9500
:100A9500AB07C2A48B80120A55D2A5EBC454F0FB58
:080AA500F580120A55D2A522CA
:100A7500AB07D2A48B80C2A57F0A120A59D2A5EB77
:100A8500C454F0FBF580C2A57F0A120A59D2A522EB
:0609D6008B088A09890A62
:1009DC00E4F50BAB08AA09A90A120AADC3E50B9FF3
:1009EC00E49E5017AB08AA09A90A850B82758300EF
:0B09FC00120989FF120A75050B80D854
:010A070022CC
:100A08007FFB7E04120A5B120A321208008B0D8AE1
:100A18000E890F120970FF60F1E50C7008120A7553
:0A0A2800750C0180E5E4F50C80E098
:030000000208E40F
:0C08E400787FE4F6D8FD75811302092B23
:10097000BB010689828A83E0225002E722BBFE0285
:09098000E32289828A83E49322B8
:10098900BB010CE58229F582E5833AF583E0225023
:1009990006E92582F8E622BBFE06E92582F8E2226D
:0D09A900E58229F582E5833AF583E4932287
:1009B6007401FF3395E0FEFDFC080808E6CF2FF62C
:1009C60018E6CE3EF618E6CD3DF618E6CC3CF62205
:100AAD00E4FFFE120970600C0FEF70010E09E97082
:050ABD00F20A80EF22A7
:1008F000020A08E493A3F8E493A34003F68001F20C
:1009000008DFF48029E493A3F85407240CC8C33308
:10091000C4540F4420C8834004F456800146F6DFD7
:10092000E4800B0102040810204080900AC2E47E9B
:10093000019360BCA3FF543F30E509541FFEE493CC
:10094000A360010ECF54C025E060A840B8E493A393
:10095000FAE493A3F8E493A3C8C582C8CAC583CABE
:10096000F0A3C8C582C8CAC583CADFE9DEE780BE76
:010AC5000030
:00000001FF
