:10098E000A2A88C6868E89F9C78C92C10A20C0F9B8
:10099E00A4B0999282F880901408C0F9A4B09992EC
:1009AE0082F8809088C6868E89F9C78C92C1041C05
:0409BE00010203042B
:0809C3007F0A7E007D007C002C
:1009CB008F408E3F8D3E8C3D783D74FF120970EC4D
:0609DB004D4E4F70F322A7
:100800008B378A388939AB3AAA3BA93C120928FFB1
:100810003395E0AB37AA38A9398F82F583120941A5
:10082000F580C2A01209C3D2A0AB3AAA3BA93C9062
:100830000001120941FF3395E0AB37AA38A9398F7F
:1008400082F583120941F580C2A11209C3D2A1AB7E
:100850003AAA3BA93C900002120941FF3395E0AB54
:1008600037AA38A9398F82F583120941F580C2A2CF
:100870001209C3D2A2AB3AAA3BA93C9000031209C9
:1008800041FF3395E0AB37AA38A9398F82F583123F
:0C0890000941F580C2A31209C3D2A322C3
:1009E10075340075350075361C85343A85353B857F
:0D09F100363C7B007A00792012080080EC73
:0300000002089C57
:0C089C00787FE4F6D8FD7581400208E387
:10092800BB010689828A83E0225002E722BBFE02CD
:09093800E32289828A83E4932200
:10094100BB010CE58229F582E5833AF583E022506B
:1009510006E92582F8E622BBFE06E92582F8E222B5
:0D096100E58229F582E5833AF583E49322CF
:10096E007401FF3395E0FEFDFC080808E6CF2FF674
:10097E0018E6CE3EF618E6CD3DF618E6CC3CF6224D
:1008A8000209E1E493A3F8E493A34003F68001F27C
:1008B80008DFF48029E493A3F85407240CC8C33351
:1008C800C4540F4420C8834004F456800146F6DF20
:1008D800E4800B010204081020408090098EE47E19
:1008E800019360BCA3FF543F30E509541FFEE49315
:1008F800A360010ECF54C025E060A840B8E493A3DC
:10090800FAE493A3F8E493A3C8C582C8CAC583CA06
:10091800F0A3C8C582C8CAC583CADFE9DEE780BEBE
:0109C2000034
:00000001FF
