:020AE000C10053
:10080000E4F50BF50AF509F508C290D293D292D21D
:100810009120950C750831750941750A42750B4395
:1008200020960C750832750944750A45750B4620EB
:10083000970C750833750947750A48750B49C291BD
:10084000D293D292D29020950C75083475094A75CE
:100850000A4B750B4C20960C75083575094D750AB9
:100860004E750B4F20970C750836750950750A5157
:10087000750B52C292D293D291D29020950C7508EA
:1008800037750953750A54750B5520960C75083841
:10089000750956750A57750B5820970C75083975E8
:1008A0000959750A5A750B43C293D292D291D290CC
:1008B00020950C75082A75092A750A2A750B2A20B5
:1008C000960C750830750920750A20750B20209745
:1008D0000C750823750923750A23750B237B007A91
:0308E00000790894
:0108E30022F2
:100A2200EBC3132480FBF5807F987E3A7D007C0027
:100A32008F0D8E0C8D0B8C0A780A74FF1209D1EC83
:060A42004D4E4F70F3223F
:100A8300E4FBC374809481500EEBF4F5807F507EB9
:070A9300C3120A2E0B80EBD9
:010A9A002239
:100AB100E4FBC294EBF4F5807F307E75120A2E8040
:010AC100F341
:0F0AC2007B0FEBF4F5807F307E75120A2E80F3E8
:0F0AD100C2947BFFE4FA120A220ABA08F980F3F2
:100A9B00C2947BFFE4FAEB25E0FB0B8B80120A2A56
:060AAB000ABA08F280EC1B
:010AE30022F0
:100A48007904C294E4FAEAC3995009EBC313120A71
:100A5800270A80F2E4FAEAC3940850E8120A220A44
:020A680080F418
:1009EF00E4F97509087B808B08E4FAEAC39509508E
:1009FF0012EBF4F5807F307E75120A2EEBC313FBDA
:100A0F000A80E81509E5084480FBE925E0F9F42B95
:030A1F00FB80D485
:100A6A00C2941208008B0E8A0F89101209B6FF6011
:090A7A00F12000EE12097080E980
:10097000EF14B40800503E90098575F003A4C583B8
:1009800025F0C5837302099D0209A00209A302098B
:10099000A60209A90209AC0209AF0209B2020A8340
:1009A000020AB1020AC2020AD1020A9B020AE30247
:0609B0000A481209EF22C3
:030000000208E40F
:0C08E400787FE4F6D8FD75812002092B16
:1009B600BB010689828A83E0225002E722BBFE023F
:0909C600E32289828A83E4932272
:1009CF007401FF3395E0FEFDFC080808E6CF2FF613
:1009DF0018E6CE3EF618E6CD3DF618E6CC3CF622EC
:1008F000020A6AE493A3F8E493A34003F68001F2AA
:1009000008DFF48029E493A3F85407240CC8C33308
:10091000C4540F4420C8834004F456800146F6DFD7
:10092000E4800B0102040810204080900AE0E47E7D
:10093000019360BCA3FF543F30E509541FFEE493CC
:10094000A360010ECF54C025E060A840B8E493A393
:10095000FAE493A3F8E493A3C8C582C8CAC583CABE
:10096000F0A3C8C582C8CAC583CADFE9DEE780BE76
:010AE2000013
:00000001FF
