:10080000E4F50BF50AF509F508C290D293D292D21D
:100810009120950C750831750941750A42750B4395
:1008200020960C750832750944750A45750B4620EB
:10083000970C750833750947750A48750B49C291BD
:10084000D293D292D29020950C75083475094A75CE
:100850000A4B750B4C20960C75083575094D750AB9
:100860004E750B4F20970C750836750950750A5157
:10087000750B52C292D293D291D29020950C7508EA
:1008800037750953750A54750B5520960C75083841
:10089000750956750A57750B5820970C75083975E8
:1008A0000959750A5A750B43C293D292D291D290CC
:1008B00020950C75082A75092A750A2A750B2A20B5
:1008C000960C750830750920750A20750B20209745
:1008D0000C750823750923750A23750B237B007A91
:0308E00000790894
:0108E30022F2
:1008FD00C2941208008B0C8A0D890E1208E4F4F5CF
:03090D008080EFF8
:03000000020910E2
:0C091000787FE4F6D8FD75810E0208FD2A
:1008E400BB010689828A83E0225002E722BBFE0212
:0908F400E32289828A83E4932245
:00000001FF
