:100A9D000A2E88C6868E89F9C78C92C10A20C0F9A4
:100AAD00A4B0999282F880901408C0F9A4B09992DC
:100ABD0082F8809088C6868E89F9C78C92C1011FF5
:0A0ACD0000011D00011C00011E00C5
:080AD8007F0A7E007D007C0016
:100AE0008F418E408D3F8C3E783E74FF12089DEC06
:060AF0004D4E4F70F32291
:1008BB008B388A39893AAB3BAA3CA93D120800FF19
:1008CB003395E0AB38AA39A93A8F82F58312081910
:1008DB00F580C2A0120AD8D2A0AB3BAA3CA93D908E
:1008EB000001120819FF3395E0AB38AA39A93A8FEA
:1008FB0082F583120819F580C2A1120AD8D2A1ABD6
:10090B003BAA3CA93D900002120819FF3395E0ABBE
:10091B0038AA39A93A8F82F583120819F580C2A239
:10092B00120AD8D2A2AB3BAA3CA93D9000031208F5
:10093B0019FF3395E0AB38AA39A93A8F82F58312A8
:0C094B000819F580C2A3120AD8D2A3221A
:1009E3007580FF7590FF75A0FF75B0FFC294C2A01C
:1009F300758901758AB0758CFFD28C75A882C2B4D3
:100A0300C2A0C2B2C2B2D2B3C2B5C2B6D2B7C2B228
:100A13007F64120ADAD2B2D2B27F64120ADAC2B2A5
:100A230020B3FD30B3FD7580FFD2B585802DC2B5EF
:100A3300E4F58085802D120A5A8B2A8A2B892C8B08
:100A43003B8A3C893D7B007A0079201208BB7F6496
:070A5300120ADAC2B480B3FD
:100A5A00E52D75F00A8485F01FE52D75F00A847579
:100A6A00F00A8485F01DE52D75F0648475F00A841A
:100A7A0085F01CAF2D7E007C037DE81208468F1E90
:100A8A00851F38851D39851C3A851E3B7B007A00F7
:020A9A007938A9
:010A9C002237
:03000B00020AF6F0
:030AF600B2B43265
:030000000209579B
:0C095700787FE4F6D8FD75814102099E0E
:10080000BB010689828A83E0225002E722BBFE02F6
:09081000E32289828A83E4932229
:10081900BB010CE58229F582E5833AF583E0225094
:1008290006E92582F8E622BBFE06E92582F8E222DE
:0D083900E58229F582E5833AF583E49322F8
:10084600BC000BBE0029EF8DF084FFADF022E4CC96
:10085600F875F008EF2FFFEE33FEEC33FCEE9DEC5F
:10086600984005FCEE9DFE0FD5F0E9E4CEFD22EDA5
:10087600F8F5F0EE8420D21CFEADF075F008EF2FEF
:10088600FFED33FD4007985006D5F0F222C398FDE0
:050896000FD5F0EA227D
:10089B007401FF3395E0FEFDFC080808E6CF2FF648
:1008AB0018E6CE3EF618E6CD3DF618E6CC3CF62221
:100963000209E3E493A3F8E493A34003F68001F2BE
:1009730008DFF48029E493A3F85407240CC8C33395
:10098300C4540F4420C8834004F456800146F6DF64
:10099300E4800B0102040810204080900A9DE47E4D
:1009A300019360BCA3FF543F30E509541FFEE49359
:1009B300A360010ECF54C025E060A840B8E493A320
:1009C300FAE493A3F8E493A3C8C582C8CAC583CA4B
:1009D300F0A3C8C582C8CAC583CADFE9DEE780BE03
:010AD700001E
:00000001FF
