:100A81000A4188C6868E89F9C78C92C10A2DC0F9A0
:100A9100A4B0999282F88090140DC0F9A4B09992F3
:100AA10082F8809088C6868E89F9C78C92C101210F
:100AB10000010C01040800000000043D01020304D0
:0C0AC100042908080007042206050003B1
:10080000E4F54EF54DF54CF54BC290D293D292D211
:100810009120950C754B31754C41754D42754E4389
:1008200020960C754B32754C44754D45754E4620DF
:10083000970C754B33754C47754D48754E49C291B1
:10084000D293D292D29020950C754B34754C4A7548
:100850004D4B754E4C20960C754B35754C4D754D6A
:100860004E754E4F20970C754B36754C50754D514B
:10087000754E52C292D293D291D29020950C754B64
:1008800037754C53754D54754E5520960C754B3835
:10089000754C56754D57754E5820970C754B3975DC
:1008A0004C59754D5A754E43C293D292D291D29003
:1008B00020950C754B2A754C2A754D2A754E2A20A9
:1008C000960C754B30754C20754D20754E20209739
:1008D0000C754B23754C23754D23754E237B007A85
:0308E00000794B51
:0108E30022F2
:080B69007F0A7E007D007C0084
:100B71008F548E538D528C51785174FF120A63EC4D
:060B81004D4E4F70F322FF
:0F08E40085374E85384F8539507B007A00794132
:1008F3008B4B8A4C894DAB4EAA4FA950120A1BFF52
:100903003395E0AB4BAA4CA94D8F82F583120A3481
:10091300F580C2A0120B69D2A0AB4EAA4FA950908A
:100923000001120A34FF3395E0AB4BAA4CA94D8F5B
:1009330082F583120A34F580C2A1120B69D2A1ABEE
:100943004EAA4FA950900002120A34FF3395E0AB30
:100953004BAA4CA94D8F82F583120A34F580C2A2AB
:10096300120B69D2A2AB4EAA4FA950900003120AF0
:1009730034FF3395E0AB4BAA4CA94D8F82F583121C
:0C0983000A34F580C2A3120B69D2A32233
:100B0D001208008B268A278928120A1BFF6012E51E
:100B1D0021700B120B428B378A3889398003E4F52B
:100B2D002185374E85384F8539507B007A00792DD8
:050B3D001208F380CB5B
:100B4200EF640F6015EF64F06010850A0B85090AE7
:100B52008508098F087521018006BFF003120ACEAD
:070B62007B007A00790822F4
:100ACE00E4FFC374039F243DF8E6FE74082FF8E696
:100ADE006E6003E4F50C0FBF04E8E50CB4010E756F
:100AEE0037007538007539291208E480FBE50C7063
:0E0AFE000DF5377538007539221208E480FBBB
:010B0C0022C6
:0300000002098F63
:0C098F00787FE4F6D8FD7581540209D68B
:100A1B00BB010689828A83E0225002E722BBFE02D9
:090A2B00E32289828A83E493220C
:100A3400BB010CE58229F582E5833AF583E0225077
:100A440006E92582F8E622BBFE06E92582F8E222C1
:0D0A5400E58229F582E5833AF583E49322DB
:100A61007401FF3395E0FEFDFC080808E6CF2FF680
:100A710018E6CE3EF618E6CD3DF618E6CC3CF62259
:10099B00020B0DE493A3F8E493A34003F68001F25A
:1009AB0008DFF48029E493A3F85407240CC8C3335D
:1009BB00C4540F4420C8834004F456800146F6DF2C
:1009CB00E4800B0102040810204080900A81E47E31
:1009DB00019360BCA3FF543F30E509541FFEE49321
:1009EB00A360010ECF54C025E060A840B8E493A3E8
:1009FB00FAE493A3F8E493A3C8C582C8CAC583CA13
:100A0B00F0A3C8C582C8CAC583CADFE9DEE780BECA
:010ACD000028
:00000001FF
