:03090A00010805DC
:0808EC007FF47E017D007C0019
:1008F4008F0F8E0E8D0D8C0C780C74FF1208CEECBD
:060904004D4E4F70F3227E
:10088C00C29475097F750AFEE4F50BAF081508EFE5
:10089C00600E8509801208EC850A801208EC80EB4A
:1008AC00E509C313F5092480F509E50A25E0F50AE5
:1008BC00050A750805050BE50BC3940840CD80C2ED
:03000000020800F3
:0C080000787FE4F6D8FD75810F020847F0
:1008CC007401FF3395E0FEFDFC080808E6CF2FF617
:1008DC0018E6CE3EF618E6CD3DF618E6CC3CF622F0
:10080C0002088CE493A3F8E493A34003F68001F26E
:10081C0008DFF48029E493A3F85407240CC8C333ED
:10082C00C4540F4420C8834004F456800146F6DFBC
:10083C00E4800B010204081020408090090AE47E39
:10084C00019360BCA3FF543F30E509541FFEE493B1
:10085C00A360010ECF54C025E060A840B8E493A378
:10086C00FAE493A3F8E493A3C8C582C8CAC583CAA3
:10087C00F0A3C8C582C8CAC583CADFE9DEE780BE5B
:01090D0000E9
:00000001FF
