:03093200010D04B0
:0C08E900F50CF5807F987E3A7D007C00C5
:1008F5008F0B8E0A8D098C08780874FF12090DEC90
:060905004D4E4F70F3227D
:07092B00C2941208BC80FB1E
:1008BC00E4F50EE50EC3950D500BE50CC3131208B1
:1008CC00E9050E80EEE4F50EE50CC313F50C24805F
:0D08DC001208E9050EE50EC3940840EC2259
:10088C00E4F50EE50EC3950D500BE50C25E01208B2
:10089C00E9050E80EEE4F50EE50C25E0F50C050CF3
:1008AC00850C801208ED050EE50EC3940840E92274
:03000000020800F3
:0C080000787FE4F6D8FD75810E020847F1
:10090B007401FF3395E0FEFDFC080808E6CF2FF6D7
:10091B0018E6CE3EF618E6CD3DF618E6CC3CF622B0
:10080C0002092BE493A3F8E493A34003F68001F2CE
:10081C0008DFF48029E493A3F85407240CC8C333ED
:10082C00C4540F4420C8834004F456800146F6DFBC
:10083C00E4800B0102040810204080900932E47E11
:10084C00019360BCA3FF543F30E509541FFEE493B1
:10085C00A360010ECF54C025E060A840B8E493A378
:10086C00FAE493A3F8E493A3C8C582C8CAC583CAA3
:10087C00F0A3C8C582C8CAC583CADFE9DEE780BE5B
:0109350000C1
:00000001FF
