:04091F00C100C181D1
:1008C40092B5A20192B6A20192B7E47F307E75FD83
:0108D400FC27
:1008D500E50824FCF508F8120913A80874FF1208A6
:0E08E500F5EC4D4E4F70F3E5082404F50822A3
:10088C0075A881758801A20092B4A2011208C4A2B5
:10089C000192B4A2001208C4A20192B4A20192B5B2
:1008AC00A2001208C8A20192B4A20192B5A20192B0
:0808BC00B6A2001208CC80CEA8
:03000300020924CB
:03092400B20032EC
:03000000020800F3
:0C080000787FE4F6D8FD758120020847DF
:1008F3007401FF3395E0FEFDFC080808E6CF2FF6F0
:1009030018E6CE3EF618E6CD3DF618E6CC3CF622C8
:0C091300ECF608EDF608EEF608EFF62210
:10080C0002088CE493A3F8E493A34003F68001F26E
:10081C0008DFF48029E493A3F85407240CC8C333ED
:10082C00C4540F4420C8834004F456800146F6DFBC
:10083C00E4800B010204081020408090091FE47E24
:10084C00019360BCA3FF543F30E509541FFEE493B1
:10085C00A360010ECF54C025E060A840B8E493A378
:10086C00FAE493A3F8E493A3C8C582C8CAC583CAA3
:10087C00F0A3C8C582C8CAC583CADFE9DEE780BE5B
:0109230000D3
:00000001FF
