:10091100011A0001190001080020201B48656C6CB8
:100921006F204775657374212057686174277320A0
:10093100796F7572206E616D653F2000093B5765C7
:100941006C636F6D6520002023442C20776520683F
:1009510061766520666F6C6C6F77696E672069746C
:10096100656D7320666F7220796F753A0012673179
:100971002E436F6F6B69657320322E43616B657314
:010981000075
:0E0A3D002518F8E6F5997FE87E037D007C0021
:100A4B008F7C8E7B8D7A8C79787974FF1209E0EC30
:060A5B004D4E4F70F32226
:100A760075A890758920758DFD759850D28E80FE6B
:030023000209834C
:10098300C0E0C0F0C083C082C0D075D000C000C03A
:1009930001C002C003C004C005C006C007309820D0
:1009A300E599B40D10C298E5087005120A17801076
:1009B30012088C800B7409251AF8A699051AC29897
:1009C300D007D006D005D004D003D002D001D00088
:0B09D300D0D0D082D083D0F0D0E03232
:100A1700E4F5187B007A00791B120A61C3E5189F79
:100A2700E49E500B741B120A3DC299051880E475A9
:060A37000801E4F51A229B
:10088C00E4F5187B007A00793B120A61C3E5189FE6
:10089C00E49E500B743B120A3DC299051880E4E4A7
:1008AC00F5187B007A007909120A61C3E5189FE4F8
:1008BC009E500B7409120A3DC299051880E4E4F5A8
:1008CC00187B007A007944120A61C3E5189FE49EF4
:1008DC00500B7444120A3DC299051880E475990DA9
:1008EC00120A43C299E4F5187B007A007967120A60
:1008FC0061C3E5189FE49E500B7467120A3DC299C0
:05090C00051880E42243
:03000000020800F3
:0C080000787FE4F6D8FD75817C02084783
:1009DE007401FF3395E0FEFDFC080808E6CF2FF604
:1009EE0018E6CE3EF618E6CD3DF618E6CC3CF622DD
:100A6100E4FFFE1209FE600C0FEF70010E09E97040
:050A7100F20A80EF22F3
:10080C00020A76E493A3F8E493A34003F68001F282
:10081C0008DFF48029E493A3F85407240CC8C333ED
:10082C00C4540F4420C8834004F456800146F6DFBC
:10083C00E4800B0102040810204080900911E47E32
:10084C00019360BCA3FF543F30E509541FFEE493B1
:10085C00A360010ECF54C025E060A840B8E493A378
:10086C00FAE493A3F8E493A3C8C582C8CAC583CAA3
:10087C00F0A3C8C582C8CAC583CADFE9DEE780BE5B
:010982000074
:1009FE00BB010689828A83E0225002E722BBFE02F7
:090A0E00E32289828A83E4932229
:00000001FF
