:0A0C0E005365742054696D653A00C7
:100BB90001133001143001153001163001173001CD
:0B0BC9000C00010D00011200010800EB
:10080000E4F51FF51EF51DF51CC290D293D292D2CD
:100810009120950C751C31751D41751E42751F4345
:1008200020960C751C32751D44751E45751F46209B
:10083000970C751C33751D47751E48751F49C2916D
:10084000D293D292D29020950C751C34751D4A75A6
:100850001E4B751F4C20960C751C35751D4D751E55
:100860004E751F4F20970C751C36751D50751E5107
:10087000751F52C292D293D291D29020950C751CC2
:1008800037751D53751E54751F5520960C751C38F1
:10089000751D56751E57751F5820970C751C397598
:1008A0001D59751E5A751F43C293D292D291D29090
:1008B00020950C751C2A751D2A751E2A751F2A2065
:1008C000960C751C30751D20751E20751F202097F5
:1008D0000C751C23751D23751E23751F237B007A41
:0308E00000791C80
:0108E30022F2
:0A0B5D00C2A57F647E007D007C00CD
:100B67008F238E228D218C20782074FF120AEAECC5
:060B77004D4E4F70F32209
:100B3A007F28120BD57F28120BD57F28120BD57F61
:100B4A000F120BD57F06120BD57F02120BD57F0130
:030B5A00020BD5B6
:100BD500AB07C2A48B80120B5DD2A5EBC454F0FB0E
:080BE500F580120B5DD2A52280
:100B7D00AB07D2A48B80C2A57F0A120B61D2A5EB65
:100B8D00C454F0FBF580C2A57F0A120B61D2A522D9
:060B08008B1C8A1D891EF2
:100B0E00E4F51FAB1CAA1DA91E120BEDC3E51F9F1A
:100B1E00E49E5017AB1CAA1DA91E851F827583006B
:0B0B2E00120ABBFF120B7D051F80D8D0
:010B39002299
:100A1F007FFB7E04120B63120B3A7BFF7A0C790E6D
:100A2F00120B087F6D120B7D7F6D120B7D7F3A12BB
:100A3F000B7D7F73120B7D7F73120B7D7FC0120BAB
:100A4F00D5AF16120B7DAF15120B7D7F3A120B7DB2
:100A5F00AF14120B7DAF13120B7D7F3A120B7DAFCC
:100A6F0017120B7D7F89120BD51208008B098A0A8A
:100A7F00890B120AA2FF6009E5087008120B9D800E
:100A8F0003E4F508E512B404E07F0C120BD575A84A
:030A9F008380FE53
:03000B000208E404
:1008E400C0E0C0D075D000C000C003C004C005C0C3
:1008F40006C007758C3C758AB0AF0C050CEF64011B
:10090400707CF50C0517E517D3943940057517303D
:100914000513E513D3943940057513300514E51414
:10092400D3943540057514300515E515D394394035
:10093400057515300516E516D39435400375163044
:10094400E513B51111E514B5100CE515B50F07E560
:1009540016B50E02C28C7FC0120BD5AF16120B7DDA
:10096400AF15120B7D7F3A120B7DAF14120B7DAFC6
:1009740013120B7D7F3A120B7DAF17120B7DD0073C
:0F098400D006D005D004D003D000D0D0D0E032C0
:03000300020C02EA
:0C0C0200758901758C3C758AB0D28C326B
:100B9D00740E250DF8A607050D120B7D75080105C0
:0C0BAD0012E512B402057F8C120BD52259
:030000000209935F
:0C099300787FE4F6D8FD7581230209DAB4
:100AA200BB010689828A83E0225002E722BBFE0252
:090AB200E32289828A83E4932285
:100ABB00BB010CE58229F582E5833AF583E02250F0
:100ACB0006E92582F8E622BBFE06E92582F8E2223A
:0D0ADB00E58229F582E5833AF583E4932254
:100AE8007401FF3395E0FEFDFC080808E6CF2FF6F9
:100AF80018E6CE3EF618E6CD3DF618E6CC3CF622D2
:100BED00E4FFFE120AA2600C0FEF70010E09E9700E
:050BFD00F20A80EF2266
:10099F00020A1FE493A3F8E493A34003F68001F245
:1009AF0008DFF48029E493A3F85407240CC8C33359
:1009BF00C4540F4420C8834004F456800146F6DF28
:1009CF00E4800B0102040810204080900BB9E47EF4
:1009DF00019360BCA3FF543F30E509541FFEE4931D
:1009EF00A360010ECF54C025E060A840B8E493A3E4
:1009FF00FAE493A3F8E493A3C8C582C8CAC583CA0F
:100A0F00F0A3C8C582C8CAC583CADFE9DEE780BEC6
:010BD4000020
:00000001FF
